{
  "_format": "hh-sol-artifact-1",
  "contractName": "TenderScoringRegistry",
  "sourceName": "contracts/TenderScoringRegistry.sol",
  "abi": [
    {
      "inputs": [],
      "stateMutability": "nonpayable",
      "type": "constructor"
    },
    {
      "inputs": [
        {
          "internalType": "address",
          "name": "owner",
          "type": "address"
        }
      ],
      "name": "OwnableInvalidOwner",
      "type": "error"
    },
    {
      "inputs": [
        {
          "internalType": "address",
          "name": "account",
          "type": "address"
        }
      ],
      "name": "OwnableUnauthorizedAccount",
      "type": "error"
    },
    {
      "anonymous": false,
      "inputs": [
        {
          "indexed": true,
          "internalType": "address",
          "name": "oracle",
          "type": "address"
        }
      ],
      "name": "OracleUpdated",
      "type": "event"
    },
    {
      "anonymous": false,
      "inputs": [
        {
          "indexed": true,
          "internalType": "address",
          "name": "previousOwner",
          "type": "address"
        },
        {
          "indexed": true,
          "internalType": "address",
          "name": "newOwner",
          "type": "address"
        }
      ],
      "name": "OwnershipTransferred",
      "type": "event"
    },
    {
      "anonymous": false,
      "inputs": [
        {
          "indexed": true,
          "internalType": "uint256",
          "name": "tenderId",
          "type": "uint256"
        },
        {
          "indexed": true,
          "internalType": "address",
          "name": "bidder",
          "type": "address"
        },
        {
          "indexed": false,
          "internalType": "uint16",
          "name": "totalScore",
          "type": "uint16"
        },
        {
          "indexed": false,
          "internalType": "bytes32",
          "name": "reportHash",
          "type": "bytes32"
        }
      ],
      "name": "ScoreSubmitted",
      "type": "event"
    },
    {
      "inputs": [
        {
          "internalType": "uint256",
          "name": "tenderId",
          "type": "uint256"
        },
        {
          "internalType": "address",
          "name": "bidder",
          "type": "address"
        }
      ],
      "name": "getScore",
      "outputs": [
        {
          "internalType": "uint16",
          "name": "totalScore",
          "type": "uint16"
        },
        {
          "internalType": "bytes32",
          "name": "reportHash",
          "type": "bytes32"
        }
      ],
      "stateMutability": "view",
      "type": "function"
    },
    {
      "inputs": [],
      "name": "owner",
      "outputs": [
        {
          "internalType": "address",
          "name": "",
          "type": "address"
        }
      ],
      "stateMutability": "view",
      "type": "function"
    },
    {
      "inputs": [],
      "name": "renounceOwnership",
      "outputs": [],
      "stateMutability": "nonpayable",
      "type": "function"
    },
    {
      "inputs": [
        {
          "internalType": "uint256",
          "name": "",
          "type": "uint256"
        },
        {
          "internalType": "address",
          "name": "",
          "type": "address"
        }
      ],
      "name": "scores",
      "outputs": [
        {
          "internalType": "uint16",
          "name": "totalScore",
          "type": "uint16"
        },
        {
          "internalType": "bytes32",
          "name": "reportHash",
          "type": "bytes32"
        },
        {
          "internalType": "bool",
          "name": "exists",
          "type": "bool"
        }
      ],
      "stateMutability": "view",
      "type": "function"
    },
    {
      "inputs": [],
      "name": "scoringOracle",
      "outputs": [
        {
          "internalType": "address",
          "name": "",
          "type": "address"
        }
      ],
      "stateMutability": "view",
      "type": "function"
    },
    {
      "inputs": [
        {
          "internalType": "address",
          "name": "oracle",
          "type": "address"
        }
      ],
      "name": "setScoringOracle",
      "outputs": [],
      "stateMutability": "nonpayable",
      "type": "function"
    },
    {
      "inputs": [
        {
          "internalType": "uint256",
          "name": "tenderId",
          "type": "uint256"
        },
        {
          "internalType": "address",
          "name": "bidder",
          "type": "address"
        },
        {
          "internalType": "uint16",
          "name": "totalScore",
          "type": "uint16"
        },
        {
          "internalType": "bytes32",
          "name": "reportHash",
          "type": "bytes32"
        }
      ],
      "name": "submitScore",
      "outputs": [],
      "stateMutability": "nonpayable",
      "type": "function"
    },
    {
      "inputs": [
        {
          "internalType": "address",
          "name": "newOwner",
          "type": "address"
        }
      ],
      "name": "transferOwnership",
      "outputs": [],
      "stateMutability": "nonpayable",
      "type": "function"
    }
  ],
  "bytecode": "0x6080604052348015600f57600080fd5b503380603557604051631e4fbdf760e01b81526000600482015260240160405180910390fd5b603c816041565b506091565b600080546001600160a01b038381166001600160a01b0319831681178455604051919092169283917f8be0079c531659141344cd1fd0a4f28419497f9722a3daafe3b4186f6b6457e09190a35050565b6106e8806100a06000396000f3fe608060405234801561001057600080fd5b50600436106100885760003560e01c806380f2ff251161005b57806380f2ff251461013c5780638da5cb5b14610169578063c61ebc671461017a578063f2fde38b1461018d57600080fd5b8063271e32de1461008d57806359866b71146100a2578063715018a6146100d25780637a07b674146100da575b600080fd5b6100a061009b366004610617565b6101a0565b005b6001546100b5906001600160a01b031681565b6040516001600160a01b0390911681526020015b60405180910390f35b6100a06103f3565b61011a6100e8366004610664565b6002602081815260009384526040808520909152918352912080546001820154919092015461ffff9092169160ff1683565b6040805161ffff909416845260208401929092521515908201526060016100c9565b61014f61014a366004610664565b610407565b6040805161ffff90931683526020830191909152016100c9565b6000546001600160a01b03166100b5565b6100a0610188366004610690565b6104a7565b6100a061019b366004610690565b610540565b6001546001600160a01b031633146101f75760405162461bcd60e51b81526020600482015260156024820152744e6f7420617574686f72697a6564206f7261636c6560581b60448201526064015b60405180910390fd5b6001600160a01b03831661023e5760405162461bcd60e51b815260206004820152600e60248201526d24b73b30b634b2103134b23232b960911b60448201526064016101ee565b6127108261ffff1611156102895760405162461bcd60e51b815260206004820152601260248201527153636f7265206f7574206f662072616e676560701b60448201526064016101ee565b806102cc5760405162461bcd60e51b8152602060048201526013602482015272092dcecc2d8d2c840e4cae0dee4e840d0c2e6d606b1b60448201526064016101ee565b60008481526002602081815260408084206001600160a01b0388168552909152909120015460ff16156103415760405162461bcd60e51b815260206004820152601760248201527f53636f726520616c7265616479207375626d697474656400000000000000000060448201526064016101ee565b6040805160608101825261ffff8481168083526020808401868152600185870181815260008c815260028086528982206001600160a01b038e16808452908752918a90209851895461ffff191698169790971788559251918701919091555194909301805460ff19169415159490941790935583519081529182018490529186917f647bbc693f16f2326124cf866e3bf208d6426d6988ca8ceab5e9f29a492ebfae910160405180910390a350505050565b6103fb61057e565b61040560006105ab565b565b60008281526002602081815260408084206001600160a01b038616855282528084208151606081018352815461ffff1681526001820154938101939093529092015460ff16151591810182905282916104945760405162461bcd60e51b815260206004820152600f60248201526e14d8dbdc99481b9bdd08199bdd5b99608a1b60448201526064016101ee565b8051602090910151909590945092505050565b6104af61057e565b6001600160a01b0381166104f65760405162461bcd60e51b815260206004820152600e60248201526d496e76616c6964206f7261636c6560901b60448201526064016101ee565b600180546001600160a01b0319166001600160a01b0383169081179091556040517f3df77beb5db05fcdd70a30fc8adf3f83f9501b68579455adbd100b818094039490600090a250565b61054861057e565b6001600160a01b03811661057257604051631e4fbdf760e01b8152600060048201526024016101ee565b61057b816105ab565b50565b6000546001600160a01b031633146104055760405163118cdaa760e01b81523360048201526024016101ee565b600080546001600160a01b038381166001600160a01b0319831681178455604051919092169283917f8be0079c531659141344cd1fd0a4f28419497f9722a3daafe3b4186f6b6457e09190a35050565b80356001600160a01b038116811461061257600080fd5b919050565b6000806000806080858703121561062d57600080fd5b8435935061063d602086016105fb565b9250604085013561ffff8116811461065457600080fd5b9396929550929360600135925050565b6000806040838503121561067757600080fd5b82359150610687602084016105fb565b90509250929050565b6000602082840312156106a257600080fd5b6106ab826105fb565b939250505056fea26469706673582212206cdbc288ec15be2115a63139b12dfc6959b89af4304b934e6d6dfc1fc8ac860464736f6c634300081a0033",
  "linkReferences": {},
  "deployedLinkReferences": {}
}