{
  "_format": "hh-sol-artifact-1",
  "contractName": "AwardedTender",
  "sourceName": "contracts/AwardedTender.sol",
  "abi": [
    {
      "inputs": [],
      "stateMutability": "nonpayable",
      "type": "constructor"
    },
    {
      "inputs": [
        {
          "internalType": "uint256",
          "name": "tenderId",
          "type": "uint256"
        }
      ],
      "name": "AlreadyMinted",
      "type": "error"
    },
    {
      "inputs": [],
      "name": "EnforcedPause",
      "type": "error"
    },
    {
      "inputs": [],
      "name": "ExpectedPause",
      "type": "error"
    },
    {
      "inputs": [
        {
          "internalType": "uint256",
          "name": "requested",
          "type": "uint256"
        },
        {
          "internalType": "uint256",
          "name": "available",
          "type": "uint256"
        }
      ],
      "name": "InsufficientBalance",
      "type": "error"
    },
    {
      "inputs": [],
      "name": "InvalidArrayLength",
      "type": "error"
    },
    {
      "inputs": [
        {
          "internalType": "uint256",
          "name": "tenderId",
          "type": "uint256"
        }
      ],
      "name": "InvalidTender",
      "type": "error"
    },
    {
      "inputs": [
        {
          "internalType": "address",
          "name": "owner",
          "type": "address"
        }
      ],
      "name": "OwnableInvalidOwner",
      "type": "error"
    },
    {
      "inputs": [
        {
          "internalType": "address",
          "name": "account",
          "type": "address"
        }
      ],
      "name": "OwnableUnauthorizedAccount",
      "type": "error"
    },
    {
      "inputs": [],
      "name": "ReentrancyGuardReentrantCall",
      "type": "error"
    },
    {
      "inputs": [],
      "name": "ZeroAddress",
      "type": "error"
    },
    {
      "anonymous": false,
      "inputs": [
        {
          "indexed": false,
          "internalType": "address[]",
          "name": "receivers",
          "type": "address[]"
        },
        {
          "indexed": false,
          "internalType": "uint256[]",
          "name": "amounts",
          "type": "uint256[]"
        },
        {
          "indexed": false,
          "internalType": "uint256[]",
          "name": "tenderIds",
          "type": "uint256[]"
        }
      ],
      "name": "BatchMinted",
      "type": "event"
    },
    {
      "anonymous": false,
      "inputs": [
        {
          "indexed": true,
          "internalType": "address",
          "name": "holder",
          "type": "address"
        },
        {
          "indexed": false,
          "internalType": "uint256",
          "name": "amount",
          "type": "uint256"
        },
        {
          "indexed": true,
          "internalType": "uint256",
          "name": "tenderId",
          "type": "uint256"
        }
      ],
      "name": "Burned",
      "type": "event"
    },
    {
      "anonymous": false,
      "inputs": [
        {
          "indexed": true,
          "internalType": "address",
          "name": "receiver",
          "type": "address"
        },
        {
          "indexed": false,
          "internalType": "uint256",
          "name": "amount",
          "type": "uint256"
        },
        {
          "indexed": true,
          "internalType": "uint256",
          "name": "tenderId",
          "type": "uint256"
        }
      ],
      "name": "Minted",
      "type": "event"
    },
    {
      "anonymous": false,
      "inputs": [
        {
          "indexed": true,
          "internalType": "address",
          "name": "oldMinter",
          "type": "address"
        },
        {
          "indexed": true,
          "internalType": "address",
          "name": "newMinter",
          "type": "address"
        }
      ],
      "name": "MinterUpdated",
      "type": "event"
    },
    {
      "anonymous": false,
      "inputs": [
        {
          "indexed": true,
          "internalType": "address",
          "name": "previousOwner",
          "type": "address"
        },
        {
          "indexed": true,
          "internalType": "address",
          "name": "newOwner",
          "type": "address"
        }
      ],
      "name": "OwnershipTransferred",
      "type": "event"
    },
    {
      "anonymous": false,
      "inputs": [
        {
          "indexed": false,
          "internalType": "address",
          "name": "account",
          "type": "address"
        }
      ],
      "name": "Paused",
      "type": "event"
    },
    {
      "anonymous": false,
      "inputs": [
        {
          "indexed": true,
          "internalType": "address",
          "name": "from",
          "type": "address"
        },
        {
          "indexed": true,
          "internalType": "address",
          "name": "to",
          "type": "address"
        },
        {
          "indexed": false,
          "internalType": "uint256",
          "name": "amount",
          "type": "uint256"
        }
      ],
      "name": "Sent",
      "type": "event"
    },
    {
      "anonymous": false,
      "inputs": [
        {
          "indexed": false,
          "internalType": "address",
          "name": "account",
          "type": "address"
        }
      ],
      "name": "Unpaused",
      "type": "event"
    },
    {
      "inputs": [
        {
          "internalType": "uint256",
          "name": "",
          "type": "uint256"
        }
      ],
      "name": "allAwardedTenders",
      "outputs": [
        {
          "internalType": "uint256",
          "name": "",
          "type": "uint256"
        }
      ],
      "stateMutability": "view",
      "type": "function"
    },
    {
      "inputs": [
        {
          "internalType": "address",
          "name": "",
          "type": "address"
        }
      ],
      "name": "balances",
      "outputs": [
        {
          "internalType": "uint256",
          "name": "",
          "type": "uint256"
        }
      ],
      "stateMutability": "view",
      "type": "function"
    },
    {
      "inputs": [
        {
          "internalType": "address[]",
          "name": "receivers",
          "type": "address[]"
        },
        {
          "internalType": "uint256[]",
          "name": "amounts",
          "type": "uint256[]"
        },
        {
          "internalType": "uint256[]",
          "name": "tenderIds",
          "type": "uint256[]"
        }
      ],
      "name": "batchMint",
      "outputs": [],
      "stateMutability": "nonpayable",
      "type": "function"
    },
    {
      "inputs": [
        {
          "internalType": "uint256",
          "name": "amount",
          "type": "uint256"
        },
        {
          "internalType": "uint256",
          "name": "tenderId",
          "type": "uint256"
        }
      ],
      "name": "burn",
      "outputs": [],
      "stateMutability": "nonpayable",
      "type": "function"
    },
    {
      "inputs": [],
      "name": "getAllAwardedTenders",
      "outputs": [
        {
          "internalType": "uint256[]",
          "name": "",
          "type": "uint256[]"
        }
      ],
      "stateMutability": "view",
      "type": "function"
    },
    {
      "inputs": [
        {
          "internalType": "address",
          "name": "holder",
          "type": "address"
        }
      ],
      "name": "getHolderTenders",
      "outputs": [
        {
          "internalType": "uint256[]",
          "name": "",
          "type": "uint256[]"
        }
      ],
      "stateMutability": "view",
      "type": "function"
    },
    {
      "inputs": [
        {
          "internalType": "uint256",
          "name": "tenderId",
          "type": "uint256"
        }
      ],
      "name": "getTenderToken",
      "outputs": [
        {
          "components": [
            {
              "internalType": "uint256",
              "name": "tenderId",
              "type": "uint256"
            },
            {
              "internalType": "uint256",
              "name": "amount",
              "type": "uint256"
            },
            {
              "internalType": "uint256",
              "name": "mintedAt",
              "type": "uint256"
            },
            {
              "internalType": "address",
              "name": "winner",
              "type": "address"
            }
          ],
          "internalType": "struct AwardedTender.TenderToken",
          "name": "",
          "type": "tuple"
        }
      ],
      "stateMutability": "view",
      "type": "function"
    },
    {
      "inputs": [
        {
          "internalType": "address",
          "name": "",
          "type": "address"
        },
        {
          "internalType": "uint256",
          "name": "",
          "type": "uint256"
        }
      ],
      "name": "holderToTenders",
      "outputs": [
        {
          "internalType": "uint256",
          "name": "",
          "type": "uint256"
        }
      ],
      "stateMutability": "view",
      "type": "function"
    },
    {
      "inputs": [
        {
          "internalType": "address",
          "name": "receiver",
          "type": "address"
        },
        {
          "internalType": "uint256",
          "name": "amount",
          "type": "uint256"
        },
        {
          "internalType": "uint256",
          "name": "tenderId",
          "type": "uint256"
        }
      ],
      "name": "mint",
      "outputs": [],
      "stateMutability": "nonpayable",
      "type": "function"
    },
    {
      "inputs": [],
      "name": "minter",
      "outputs": [
        {
          "internalType": "address",
          "name": "",
          "type": "address"
        }
      ],
      "stateMutability": "view",
      "type": "function"
    },
    {
      "inputs": [],
      "name": "owner",
      "outputs": [
        {
          "internalType": "address",
          "name": "",
          "type": "address"
        }
      ],
      "stateMutability": "view",
      "type": "function"
    },
    {
      "inputs": [],
      "name": "pause",
      "outputs": [],
      "stateMutability": "nonpayable",
      "type": "function"
    },
    {
      "inputs": [],
      "name": "paused",
      "outputs": [
        {
          "internalType": "bool",
          "name": "",
          "type": "bool"
        }
      ],
      "stateMutability": "view",
      "type": "function"
    },
    {
      "inputs": [],
      "name": "renounceOwnership",
      "outputs": [],
      "stateMutability": "nonpayable",
      "type": "function"
    },
    {
      "inputs": [
        {
          "internalType": "address",
          "name": "receiver",
          "type": "address"
        },
        {
          "internalType": "uint256",
          "name": "amount",
          "type": "uint256"
        }
      ],
      "name": "send",
      "outputs": [],
      "stateMutability": "nonpayable",
      "type": "function"
    },
    {
      "inputs": [
        {
          "internalType": "uint256",
          "name": "",
          "type": "uint256"
        }
      ],
      "name": "tenderToTokens",
      "outputs": [
        {
          "internalType": "uint256",
          "name": "",
          "type": "uint256"
        }
      ],
      "stateMutability": "view",
      "type": "function"
    },
    {
      "inputs": [
        {
          "internalType": "uint256",
          "name": "",
          "type": "uint256"
        }
      ],
      "name": "tenderTokens",
      "outputs": [
        {
          "internalType": "uint256",
          "name": "tenderId",
          "type": "uint256"
        },
        {
          "internalType": "uint256",
          "name": "amount",
          "type": "uint256"
        },
        {
          "internalType": "uint256",
          "name": "mintedAt",
          "type": "uint256"
        },
        {
          "internalType": "address",
          "name": "winner",
          "type": "address"
        }
      ],
      "stateMutability": "view",
      "type": "function"
    },
    {
      "inputs": [],
      "name": "totalSupply",
      "outputs": [
        {
          "internalType": "uint256",
          "name": "supply",
          "type": "uint256"
        }
      ],
      "stateMutability": "view",
      "type": "function"
    },
    {
      "inputs": [
        {
          "internalType": "address",
          "name": "newOwner",
          "type": "address"
        }
      ],
      "name": "transferOwnership",
      "outputs": [],
      "stateMutability": "nonpayable",
      "type": "function"
    },
    {
      "inputs": [],
      "name": "unpause",
      "outputs": [],
      "stateMutability": "nonpayable",
      "type": "function"
    },
    {
      "inputs": [
        {
          "internalType": "address",
          "name": "newMinter",
          "type": "address"
        }
      ],
      "name": "updateMinter",
      "outputs": [],
      "stateMutability": "nonpayable",
      "type": "function"
    }
  ],
  "bytecode": "0x6080604052348015600f57600080fd5b5060016000553380603a57604051631e4fbdf760e01b81526000600482015260240160405180910390fd5b6041816058565b50600280546001600160a01b0319163317905560aa565b600180546001600160a01b038381166001600160a01b0319831681179093556040519116919082907f8be0079c531659141344cd1fd0a4f28419497f9722a3daafe3b4186f6b6457e090600090a35050565b611585806100b96000396000f3fe608060405234801561001057600080fd5b50600436106101375760003560e01c8063715018a6116100b8578063b390c0ab1161007c578063b390c0ab14610301578063cc51310214610314578063d0679d3414610334578063d559f05b14610347578063f2fde38b1461035a578063fd592a391461036d57600080fd5b8063715018a61461027c57806380d6ade6146102845780638456cb59146102d35780638da5cb5b146102db5780639334ba13146102ec57600080fd5b80633e98905f116100ff5780633e98905f146101ca5780633f4ba83a146102315780633f760bfa146102395780634eb03f6e1461024c5780635c975abb1461025f57600080fd5b8063075461721461013c578063156e29f61461016c57806318160ddd1461018157806327e235e314610197578063292d270f146101b7575b600080fd5b60025461014f906001600160a01b031681565b6040516001600160a01b0390911681526020015b60405180910390f35b61017f61017a366004611196565b610380565b005b61018961058b565b604051908152602001610163565b6101896101a53660046111c9565b60036020526000908152604090205481565b6101896101c53660046111eb565b6105e3565b6102086101d83660046111eb565b6006602052600090815260409020805460018201546002830154600390930154919290916001600160a01b031684565b604080519485526020850193909352918301526001600160a01b03166060820152608001610163565b61017f610604565b610189610247366004611204565b610616565b61017f61025a3660046111c9565b610647565b600154600160a01b900460ff166040519015158152602001610163565b61017f6106ca565b6102976102923660046111eb565b6106dc565b60405161016391908151815260208083015190820152604080830151908201526060918201516001600160a01b03169181019190915260800190565b61017f61078f565b6001546001600160a01b031661014f565b6102f461079f565b604051610163919061126a565b61017f61030f36600461127d565b6107f7565b6101896103223660046111eb565b60046020526000908152604090205481565b61017f610342366004611204565b61092f565b61017f610355366004611377565b610a53565b61017f6103683660046111c9565b610e76565b6102f461037b3660046111c9565b610eb4565b6002546001600160a01b031633146103cd5760405162461bcd60e51b815260206004820152600b60248201526a27b7363c9036b4b73a32b960a91b60448201526064015b60405180910390fd5b826001600160a01b0381166103f55760405163d92e233d60e01b815260040160405180910390fd5b6103fd610f20565b610405610f4b565b60008281526004602052604090205415610435576040516314b27b7f60e31b8152600481018390526024016103c4565b8260000361045657604051634ec4810560e11b815260040160405180910390fd5b6001600160a01b0384166000908152600360205260408120805485929061047e908490611481565b909155505060008281526004602090815260408083208690558051608081018252858152808301878152428284019081526001600160a01b038a8116606085018181528a895260068852868920955186559351600180870191909155925160028601559251600390940180546001600160a01b0319169490911693909317909255600780548084019091557fa66cc928b5edb82af9bd49922954155ab7b0942694bea4ce44661d9a8736c68801879055808552600584528285208054928301815585529383902001859055518581528492917f25b428dfde728ccfaddad7e29e4ac23c24ed7fd1a6e3e3f91894a9a073f5dfff910160405180910390a36105856001600055565b50505050565b6000805b6007548110156105df5760046000600783815481106105b0576105b061149a565b9060005260206000200154815260200190815260200160002054826105d59190611481565b915060010161058f565b5090565b600781815481106105f357600080fd5b600091825260209091200154905081565b61060c610f75565b610614610fa2565b565b6005602052816000526040600020818154811061063257600080fd5b90600052602060002001600091509150505481565b61064f610f75565b806001600160a01b0381166106775760405163d92e233d60e01b815260040160405180910390fd5b600280546001600160a01b038481166001600160a01b0319831681179093556040519116919082907f1cf2de25c5bf439ac0287061c3a0fa69b3b02867d0ccfd2ded34e42577050b7390600090a3505050565b6106d2610f75565b6106146000610ff7565b610710604051806080016040528060008152602001600081526020016000815260200160006001600160a01b031681525090565b60008281526004602052604081205490036107415760405163481a207960e11b8152600481018390526024016103c4565b506000908152600660209081526040918290208251608081018452815481526001820154928101929092526002810154928201929092526003909101546001600160a01b0316606082015290565b610797610f75565b610614611049565b606060078054806020026020016040519081016040528092919081815260200182805480156107ed57602002820191906000526020600020905b8154815260200190600101908083116107d9575b5050505050905090565b6107ff610f20565b610807610f4b565b3360009081526003602052604090205482111561085357336000908152600360205260409081902054905163cf47918160e01b81526103c4918491600401918252602082015260400190565b60008181526004602052604081205490036108845760405163481a207960e11b8152600481018290526024016103c4565b33600090815260036020526040812080548492906108a39084906114b0565b9091555050600081815260046020526040812080548492906108c69084906114b0565b909155505060008181526004602052604081205490036108ea576108ea338261108c565b604051828152819033907f23ff0e75edf108e3d0392d92e13e8c8a868ef19001bd49f9e94876dc46dff87f9060200160405180910390a361092b6001600055565b5050565b816001600160a01b0381166109575760405163d92e233d60e01b815260040160405180910390fd5b61095f610f20565b610967610f4b565b336000908152600360205260409020548211156109b357336000908152600360205260409081902054905163cf47918160e01b81526103c4918491600401918252602082015260400190565b33600090815260036020526040812080548492906109d29084906114b0565b90915550506001600160a01b038316600090815260036020526040812080548492906109ff908490611481565b90915550506040518281526001600160a01b0384169033907f3990db2d31862302a685e8086b5755072a6e2b5b780af1ee81ece35ee3cd33459060200160405180910390a3610a4e6001600055565b505050565b6002546001600160a01b03163314610a9b5760405162461bcd60e51b815260206004820152600b60248201526a27b7363c9036b4b73a32b960a91b60448201526064016103c4565b610aa3610f20565b610aab610f4b565b81518351141580610abe57508051835114155b15610adc57604051634ec4810560e11b815260040160405180910390fd5b60005b8351811015610e305760006001600160a01b0316848281518110610b0557610b0561149a565b60200260200101516001600160a01b031603610b345760405163d92e233d60e01b815260040160405180910390fd5b828181518110610b4657610b4661149a565b6020026020010151600003610b6e57604051634ec4810560e11b815260040160405180910390fd5b60046000838381518110610b8457610b8461149a565b6020026020010151815260200190815260200160002054600014610bd857818181518110610bb457610bb461149a565b60200260200101516040516314b27b7f60e31b81526004016103c491815260200190565b828181518110610bea57610bea61149a565b602002602001015160036000868481518110610c0857610c0861149a565b60200260200101516001600160a01b03166001600160a01b031681526020019081526020016000206000828254610c3f9190611481565b92505081905550828181518110610c5857610c5861149a565b602002602001015160046000848481518110610c7657610c7661149a565b60200260200101518152602001908152602001600020819055506040518060800160405280838381518110610cad57610cad61149a565b60200260200101518152602001848381518110610ccc57610ccc61149a565b60200260200101518152602001428152602001858381518110610cf157610cf161149a565b60200260200101516001600160a01b031681525060066000848481518110610d1b57610d1b61149a565b6020026020010151815260200190815260200160002060008201518160000155602082015181600101556040820151816002015560608201518160030160006101000a8154816001600160a01b0302191690836001600160a01b031602179055509050506007828281518110610d9357610d9361149a565b6020908102919091018101518254600181018455600093845291832090910155845160059190869084908110610dcb57610dcb61149a565b60200260200101516001600160a01b03166001600160a01b03168152602001908152602001600020828281518110610e0557610e0561149a565b6020908102919091018101518254600181810185556000948552929093209092019190915501610adf565b507ff8ec6e69f36276f51060783751dc174315fe9aab798880a19d975c51c98cce39838383604051610e64939291906114c3565b60405180910390a1610a4e6001600055565b610e7e610f75565b6001600160a01b038116610ea857604051631e4fbdf760e01b8152600060048201526024016103c4565b610eb181610ff7565b50565b6001600160a01b038116600090815260056020908152604091829020805483518184028101840190945280845260609392830182828015610f1457602002820191906000526020600020905b815481526020019060010190808311610f00575b50505050509050919050565b600154600160a01b900460ff16156106145760405163d93c066560e01b815260040160405180910390fd5b600260005403610f6e57604051633ee5aeb560e01b815260040160405180910390fd5b6002600055565b6001546001600160a01b031633146106145760405163118cdaa760e01b81523360048201526024016103c4565b610faa611150565b6001805460ff60a01b191690557f5db9ee0a495bf2e6ff9c91a7834c1ba4fdd244a5e8aa4e537bd38aeae4b073aa335b6040516001600160a01b03909116815260200160405180910390a1565b600180546001600160a01b038381166001600160a01b0319831681179093556040519116919082907f8be0079c531659141344cd1fd0a4f28419497f9722a3daafe3b4186f6b6457e090600090a35050565b611051610f20565b6001805460ff60a01b1916600160a01b1790557f62e78cea01bee320cd4e420270b5ea74000d11b0c9f74754ebdbfc544b05a258610fda3390565b6001600160a01b0382166000908152600560205260408120905b815481101561058557828282815481106110c2576110c261149a565b90600052602060002001540361114857815482906110e2906001906114b0565b815481106110f2576110f261149a565b906000526020600020015482828154811061110f5761110f61149a565b90600052602060002001819055508180548061112d5761112d611539565b60019003818190600052602060002001600090559055610585565b6001016110a6565b600154600160a01b900460ff1661061457604051638dfc202b60e01b815260040160405180910390fd5b80356001600160a01b038116811461119157600080fd5b919050565b6000806000606084860312156111ab57600080fd5b6111b48461117a565b95602085013595506040909401359392505050565b6000602082840312156111db57600080fd5b6111e48261117a565b9392505050565b6000602082840312156111fd57600080fd5b5035919050565b6000806040838503121561121757600080fd5b6112208361117a565b946020939093013593505050565b600081518084526020840193506020830160005b82811015611260578151865260209586019590910190600101611242565b5093949350505050565b6020815260006111e4602083018461122e565b6000806040838503121561129057600080fd5b50508035926020909101359150565b634e487b7160e01b600052604160045260246000fd5b604051601f8201601f1916810167ffffffffffffffff811182821017156112de576112de61129f565b604052919050565b600067ffffffffffffffff8211156113005761130061129f565b5060051b60200190565b600082601f83011261131b57600080fd5b813561132e611329826112e6565b6112b5565b8082825260208201915060208360051b86010192508583111561135057600080fd5b602085015b8381101561136d578035835260209283019201611355565b5095945050505050565b60008060006060848603121561138c57600080fd5b833567ffffffffffffffff8111156113a357600080fd5b8401601f810186136113b457600080fd5b80356113c2611329826112e6565b8082825260208201915060208360051b8501019250888311156113e457600080fd5b6020840193505b8284101561140d576113fc8461117a565b8252602093840193909101906113eb565b9550505050602084013567ffffffffffffffff81111561142c57600080fd5b6114388682870161130a565b925050604084013567ffffffffffffffff81111561145557600080fd5b6114618682870161130a565b9150509250925092565b634e487b7160e01b600052601160045260246000fd5b808201808211156114945761149461146b565b92915050565b634e487b7160e01b600052603260045260246000fd5b818103818111156114945761149461146b565b6060808252845190820181905260009060208601906080840190835b818110156115065783516001600160a01b03168352602093840193909201916001016114df565b5050838103602085015261151a818761122e565b915050828103604084015261152f818561122e565b9695505050505050565b634e487b7160e01b600052603160045260246000fdfea2646970667358221220fc6f0015a74b718d247e56f7fb41a05599bcb561b07189c61bade729c562ac6f64736f6c634300081a0033",
  "linkReferences": {},
  "deployedLinkReferences": {}
}