{
  "_format": "hh-sol-artifact-1",
  "contractName": "TenderRegistry",
  "sourceName": "contracts/TenderRegistry.sol",
  "abi": [
    {
      "anonymous": false,
      "inputs": [
        {
          "indexed": true,
          "internalType": "uint256",
          "name": "tenderId",
          "type": "uint256"
        },
        {
          "indexed": true,
          "internalType": "address",
          "name": "bidder",
          "type": "address"
        },
        {
          "indexed": false,
          "internalType": "uint256",
          "name": "amount",
          "type": "uint256"
        }
      ],
      "name": "BidAccepted",
      "type": "event"
    },
    {
      "anonymous": false,
      "inputs": [
        {
          "indexed": true,
          "internalType": "uint256",
          "name": "tenderId",
          "type": "uint256"
        },
        {
          "indexed": false,
          "internalType": "string",
          "name": "title",
          "type": "string"
        }
      ],
      "name": "TenderCreated",
      "type": "event"
    },
    {
      "inputs": [
        {
          "internalType": "uint256",
          "name": "tenderId",
          "type": "uint256"
        },
        {
          "internalType": "address",
          "name": "bidder",
          "type": "address"
        },
        {
          "internalType": "uint256",
          "name": "amount",
          "type": "uint256"
        }
      ],
      "name": "acceptBid",
      "outputs": [],
      "stateMutability": "nonpayable",
      "type": "function"
    },
    {
      "inputs": [
        {
          "internalType": "string",
          "name": "title",
          "type": "string"
        }
      ],
      "name": "createTender",
      "outputs": [
        {
          "internalType": "uint256",
          "name": "",
          "type": "uint256"
        }
      ],
      "stateMutability": "nonpayable",
      "type": "function"
    },
    {
      "inputs": [
        {
          "internalType": "uint256",
          "name": "tenderId",
          "type": "uint256"
        },
        {
          "internalType": "address",
          "name": "bidder",
          "type": "address"
        }
      ],
      "name": "getBid",
      "outputs": [
        {
          "internalType": "uint256",
          "name": "",
          "type": "uint256"
        }
      ],
      "stateMutability": "view",
      "type": "function"
    },
    {
      "inputs": [
        {
          "internalType": "uint256",
          "name": "tenderId",
          "type": "uint256"
        }
      ],
      "name": "getBidders",
      "outputs": [
        {
          "internalType": "address[]",
          "name": "",
          "type": "address[]"
        }
      ],
      "stateMutability": "view",
      "type": "function"
    },
    {
      "inputs": [],
      "name": "nextTenderId",
      "outputs": [
        {
          "internalType": "uint256",
          "name": "",
          "type": "uint256"
        }
      ],
      "stateMutability": "view",
      "type": "function"
    }
  ],
  "bytecode": "0x6080604052348015600f57600080fd5b5061064b8061001f6000396000f3fe608060405234801561001057600080fd5b50600436106100575760003560e01c806327c15c511461005c5780634fa7b50714610082578063667c1a24146100a2578063af8ee37f146100ab578063eba1b60b146100c0575b600080fd5b61006f61006a366004610309565b6100fa565b6040519081526020015b60405180910390f35b61009561009036600461037d565b610180565b6040516100799190610396565b61006f60005481565b6100be6100b93660046103fe565b6101ef565b005b61006f6100ce366004610434565b60008281526001602090815260408083206001600160a01b038516845260020190915290205492915050565b600080548190818061010b83610460565b9091555060008181526001602052604090209091508061012c858783610526565b5060038101805460ff1916600117905560405182907f9d8e249860537ddb50afe107a66cfb400aa0ae897a6f94422898bb6bb1056bc09061017090889088906105e6565b60405180910390a2509392505050565b6000818152600160208181526040928390209091018054835181840281018401909452808452606093928301828280156101e357602002820191906000526020600020905b81546001600160a01b031681526001909101906020018083116101c5575b50505050509050919050565b60008381526001602052604090206003015460ff1661024c5760405162461bcd60e51b815260206004820152601560248201527415195b99195c88191bd95cc81b9bdd08195e1a5cdd605a1b604482015260640160405180910390fd5b60008381526001602090815260408083206001600160a01b0386168452600281019092528220549091036102aa576001818101805491820181556000908152602090200180546001600160a01b0319166001600160a01b0385161790555b6001600160a01b0383166000818152600283016020526040908190208490555185907f91a721693afff25f233ac308edbd2fa15ad7d4dfacdd164dd4e8c57ab72f4ae9906102fb9086815260200190565b60405180910390a350505050565b6000806020838503121561031c57600080fd5b823567ffffffffffffffff81111561033357600080fd5b8301601f8101851361034457600080fd5b803567ffffffffffffffff81111561035b57600080fd5b85602082840101111561036d57600080fd5b6020919091019590945092505050565b60006020828403121561038f57600080fd5b5035919050565b602080825282518282018190526000918401906040840190835b818110156103d75783516001600160a01b03168352602093840193909201916001016103b0565b509095945050505050565b80356001600160a01b03811681146103f957600080fd5b919050565b60008060006060848603121561041357600080fd5b83359250610423602085016103e2565b929592945050506040919091013590565b6000806040838503121561044757600080fd5b82359150610457602084016103e2565b90509250929050565b60006001820161048057634e487b7160e01b600052601160045260246000fd5b5060010190565b634e487b7160e01b600052604160045260246000fd5b600181811c908216806104b157607f821691505b6020821081036104d157634e487b7160e01b600052602260045260246000fd5b50919050565b601f82111561052157806000526020600020601f840160051c810160208510156104fe5750805b601f840160051c820191505b8181101561051e576000815560010161050a565b50505b505050565b67ffffffffffffffff83111561053e5761053e610487565b6105528361054c835461049d565b836104d7565b6000601f841160018114610586576000851561056e5750838201355b600019600387901b1c1916600186901b17835561051e565b600083815260209020601f19861690835b828110156105b75786850135825560209485019460019092019101610597565b50868210156105d45760001960f88860031b161c19848701351681555b505060018560011b0183555050505050565b60208152816020820152818360408301376000818301604090810191909152601f909201601f1916010191905056fea2646970667358221220bd4df0c0b735235b850a461d8bd71b94f738b16fad57ad68626bc224cba2910864736f6c634300081a0033",
  "linkReferences": {},
  "deployedLinkReferences": {}
}