{
  "_format": "hh-sol-artifact-1",
  "contractName": "TreasuryEscrow",
  "sourceName": "contracts/TreasuryEscrow.sol",
  "abi": [
    {
      "inputs": [
        {
          "internalType": "address",
          "name": "_tenderAwardAddress",
          "type": "address"
        },
        {
          "internalType": "address",
          "name": "_paymentTokenAddress",
          "type": "address"
        }
      ],
      "stateMutability": "nonpayable",
      "type": "constructor"
    },
    {
      "inputs": [
        {
          "internalType": "address",
          "name": "owner",
          "type": "address"
        }
      ],
      "name": "OwnableInvalidOwner",
      "type": "error"
    },
    {
      "inputs": [
        {
          "internalType": "address",
          "name": "account",
          "type": "address"
        }
      ],
      "name": "OwnableUnauthorizedAccount",
      "type": "error"
    },
    {
      "inputs": [],
      "name": "ReentrancyGuardReentrantCall",
      "type": "error"
    },
    {
      "anonymous": false,
      "inputs": [
        {
          "indexed": true,
          "internalType": "uint256",
          "name": "tenderId",
          "type": "uint256"
        }
      ],
      "name": "EscrowClosed",
      "type": "event"
    },
    {
      "anonymous": false,
      "inputs": [
        {
          "indexed": true,
          "internalType": "uint256",
          "name": "tenderId",
          "type": "uint256"
        },
        {
          "indexed": true,
          "internalType": "address",
          "name": "winner",
          "type": "address"
        },
        {
          "indexed": false,
          "internalType": "uint256",
          "name": "amount",
          "type": "uint256"
        }
      ],
      "name": "FundsLocked",
      "type": "event"
    },
    {
      "anonymous": false,
      "inputs": [
        {
          "indexed": true,
          "internalType": "uint256",
          "name": "tenderId",
          "type": "uint256"
        },
        {
          "indexed": true,
          "internalType": "address",
          "name": "recipient",
          "type": "address"
        },
        {
          "indexed": false,
          "internalType": "uint256",
          "name": "amount",
          "type": "uint256"
        }
      ],
      "name": "FundsReleased",
      "type": "event"
    },
    {
      "anonymous": false,
      "inputs": [
        {
          "indexed": true,
          "internalType": "uint256",
          "name": "tenderId",
          "type": "uint256"
        },
        {
          "indexed": false,
          "internalType": "uint256",
          "name": "milestoneIndex",
          "type": "uint256"
        }
      ],
      "name": "MilestoneCompleted",
      "type": "event"
    },
    {
      "anonymous": false,
      "inputs": [
        {
          "indexed": true,
          "internalType": "address",
          "name": "previousOwner",
          "type": "address"
        },
        {
          "indexed": true,
          "internalType": "address",
          "name": "newOwner",
          "type": "address"
        }
      ],
      "name": "OwnershipTransferred",
      "type": "event"
    },
    {
      "inputs": [
        {
          "internalType": "uint256",
          "name": "_tenderId",
          "type": "uint256"
        }
      ],
      "name": "closeEscrow",
      "outputs": [],
      "stateMutability": "nonpayable",
      "type": "function"
    },
    {
      "inputs": [
        {
          "internalType": "uint256",
          "name": "_tenderId",
          "type": "uint256"
        },
        {
          "internalType": "uint256",
          "name": "_milestoneIndex",
          "type": "uint256"
        }
      ],
      "name": "completeMilestone",
      "outputs": [],
      "stateMutability": "nonpayable",
      "type": "function"
    },
    {
      "inputs": [
        {
          "internalType": "uint256",
          "name": "_tenderId",
          "type": "uint256"
        },
        {
          "internalType": "address",
          "name": "_winner",
          "type": "address"
        },
        {
          "internalType": "uint256",
          "name": "_totalAmount",
          "type": "uint256"
        },
        {
          "internalType": "string[]",
          "name": "_milestoneDescriptions",
          "type": "string[]"
        },
        {
          "internalType": "uint256[]",
          "name": "_milestoneAmounts",
          "type": "uint256[]"
        }
      ],
      "name": "createEscrow",
      "outputs": [],
      "stateMutability": "nonpayable",
      "type": "function"
    },
    {
      "inputs": [
        {
          "internalType": "uint256",
          "name": "",
          "type": "uint256"
        }
      ],
      "name": "escrowExists",
      "outputs": [
        {
          "internalType": "bool",
          "name": "",
          "type": "bool"
        }
      ],
      "stateMutability": "view",
      "type": "function"
    },
    {
      "inputs": [
        {
          "internalType": "uint256",
          "name": "_tenderId",
          "type": "uint256"
        }
      ],
      "name": "getEscrow",
      "outputs": [
        {
          "components": [
            {
              "internalType": "uint256",
              "name": "tenderId",
              "type": "uint256"
            },
            {
              "internalType": "address",
              "name": "winner",
              "type": "address"
            },
            {
              "internalType": "uint256",
              "name": "totalAmount",
              "type": "uint256"
            },
            {
              "internalType": "uint256",
              "name": "amountReleased",
              "type": "uint256"
            },
            {
              "internalType": "bool",
              "name": "isActive",
              "type": "bool"
            },
            {
              "components": [
                {
                  "internalType": "string",
                  "name": "description",
                  "type": "string"
                },
                {
                  "internalType": "uint256",
                  "name": "amount",
                  "type": "uint256"
                },
                {
                  "internalType": "bool",
                  "name": "completed",
                  "type": "bool"
                },
                {
                  "internalType": "bool",
                  "name": "paid",
                  "type": "bool"
                },
                {
                  "internalType": "uint256",
                  "name": "completionTime",
                  "type": "uint256"
                }
              ],
              "internalType": "struct TreasuryEscrow.Milestone[]",
              "name": "milestones",
              "type": "tuple[]"
            }
          ],
          "internalType": "struct TreasuryEscrow.EscrowContract",
          "name": "",
          "type": "tuple"
        }
      ],
      "stateMutability": "view",
      "type": "function"
    },
    {
      "inputs": [],
      "name": "owner",
      "outputs": [
        {
          "internalType": "address",
          "name": "",
          "type": "address"
        }
      ],
      "stateMutability": "view",
      "type": "function"
    },
    {
      "inputs": [],
      "name": "paymentToken",
      "outputs": [
        {
          "internalType": "contract IERC20",
          "name": "",
          "type": "address"
        }
      ],
      "stateMutability": "view",
      "type": "function"
    },
    {
      "inputs": [
        {
          "internalType": "uint256",
          "name": "_tenderId",
          "type": "uint256"
        },
        {
          "internalType": "uint256",
          "name": "_milestoneIndex",
          "type": "uint256"
        }
      ],
      "name": "releaseMilestonePayment",
      "outputs": [],
      "stateMutability": "nonpayable",
      "type": "function"
    },
    {
      "inputs": [],
      "name": "renounceOwnership",
      "outputs": [],
      "stateMutability": "nonpayable",
      "type": "function"
    },
    {
      "inputs": [],
      "name": "tenderAward",
      "outputs": [
        {
          "internalType": "contract TenderAward",
          "name": "",
          "type": "address"
        }
      ],
      "stateMutability": "view",
      "type": "function"
    },
    {
      "inputs": [
        {
          "internalType": "address",
          "name": "newOwner",
          "type": "address"
        }
      ],
      "name": "transferOwnership",
      "outputs": [],
      "stateMutability": "nonpayable",
      "type": "function"
    }
  ],
  "bytecode": "0x608060405234801561001057600080fd5b5060405161138e38038061138e83398101604081905261002f91610103565b6001600055338061005a57604051631e4fbdf760e01b81526000600482015260240160405180910390fd5b61006381610095565b50600280546001600160a01b039384166001600160a01b03199182161790915560038054929093169116179055610136565b600180546001600160a01b038381166001600160a01b0319831681179093556040519116919082907f8be0079c531659141344cd1fd0a4f28419497f9722a3daafe3b4186f6b6457e090600090a35050565b80516001600160a01b03811681146100fe57600080fd5b919050565b6000806040838503121561011657600080fd5b61011f836100e7565b915061012d602084016100e7565b90509250929050565b611249806101456000396000f3fe608060405234801561001057600080fd5b50600436106100a95760003560e01c80638da5cb5b116100715780638da5cb5b1461012e5780638e0eac0f1461013f578063e24cf22614610172578063ea53be0114610185578063f2fde38b14610198578063f326206b146101ab57600080fd5b80633013ce29146100ae57806345e802e5146100de578063715018a6146100f15780637d19e596146100fb5780638c936e651461011b575b600080fd5b6003546100c1906001600160a01b031681565b6040516001600160a01b0390911681526020015b60405180910390f35b6002546100c1906001600160a01b031681565b6100f96101be565b005b61010e610109366004610d5d565b6101d2565b6040516100d59190610d76565b6100f9610129366004610ea0565b6103cd565b6001546001600160a01b03166100c1565b61016261014d366004610d5d565b60056020526000908152604090205460ff1681565b60405190151581526020016100d5565b6100f9610180366004610d5d565b61065f565b6100f9610193366004610f2a565b61072a565b6100f96101a6366004610fc3565b610ad9565b6100f96101b9366004610ea0565b610b17565b6101c6610cb4565b6101d06000610ce1565b565b6102166040518060c001604052806000815260200160006001600160a01b031681526020016000815260200160008152602001600015158152602001606081525090565b60008281526005602052604090205460ff1661024d5760405162461bcd60e51b815260040161024490610fe5565b60405180910390fd5b6000828152600460208181526040808420815160c0810183528154815260018201546001600160a01b031681850152600282015481840152600382015460608201529381015460ff16151560808501526005810180548351818602810186019094528084529495919460a08701949192909184015b828210156103bf57838290600052602060002090600402016040518060a00160405290816000820180546102f59061100f565b80601f01602080910402602001604051908101604052809291908181526020018280546103219061100f565b801561036e5780601f106103435761010080835404028352916020019161036e565b820191906000526020600020905b81548152906001019060200180831161035157829003601f168201915b5050509183525050600182810154602080840191909152600284015460ff808216151560408601526101009091041615156060840152600390930154608090920191909152918352920191016102c2565b505050915250909392505050565b6103d5610d33565b6103dd610cb4565b60008281526005602052604090205460ff1661040b5760405162461bcd60e51b815260040161024490610fe5565b6000828152600460205260409020600581015482106104605760405162461bcd60e51b8152602060048201526011602482015270496e76616c6964206d696c6573746f6e6560781b6044820152606401610244565b600081600501838154811061047757610477611049565b60009182526020909120600490910201600281015490915060ff166104ce5760405162461bcd60e51b815260206004820152600d60248201526c139bdd0818dbdb5c1b195d1959609a1b6044820152606401610244565b6002810154610100900460ff16156105175760405162461bcd60e51b815260206004820152600c60248201526b105b1c9958591e481c185a5960a21b6044820152606401610244565b60028101805461ff001916610100179055600181015460038301805460009061054190849061105f565b90915550506003546001838101549083015460405163a9059cbb60e01b81526001600160a01b039283166004820152602481019190915291169063a9059cbb906044016020604051808303816000875af11580156105a3573d6000803e3d6000fd5b505050506040513d601f19601f820116820180604052508101906105c79190611086565b6106045760405162461bcd60e51b815260206004820152600e60248201526d14185e5b595b9d0819985a5b195960921b6044820152606401610244565b600182810154908201546040519081526001600160a01b039091169085907f6e3c6096795c8298a218b2cfb8bde42726ff7c9a3d27b4d3ba41ab7f74feb5fb9060200160405180910390a3505061065b6001600055565b5050565b610667610cb4565b60008181526005602052604090205460ff166106955760405162461bcd60e51b815260040161024490610fe5565b600081815260046020526040902060028101546003820154146106ef5760405162461bcd60e51b8152602060048201526012602482015271119d5b991cc81cdd1a5b1b081b1bd8dad95960721b6044820152606401610244565b60048101805460ff1916905560405182907f533ab03197ebeffbc29962024d3af2abeeaf3cd20c3ea49ed4335e5380b12d0490600090a25050565b610732610cb4565b60008781526005602052604090205460ff16156107895760405162461bcd60e51b8152602060048201526015602482015274457363726f7720616c72656164792065786973747360581b6044820152606401610244565b8281146107d05760405162461bcd60e51b8152602060048201526015602482015274082e4e4c2f240d8cadccee8d040dad2e6dac2e8c6d605b1b6044820152606401610244565b60008781526004602081905260408220898155600180820180546001600160a01b0319166001600160a01b038c161790556002820189905560038201849055918101805460ff1916909217909155815b8581101561096157816005016040518060a0016040528089898581811061084957610849611049565b905060200281019061085b91906110a8565b8080601f0160208091040260200160405190810160405280939291908181526020018383808284376000920191909152505050908252506020018787858181106108a7576108a7611049565b6020908102929092013583525060008282018190526040830181905260609092018290528354600181018555938252902081519192600402019081906108ed9082611154565b50602082015160018201556040820151600282018054606085015115156101000261ff00199315159390931661ffff199091161791909117905560809091015160039091015584848281811061094557610945611049565b9050602002013583610957919061105f565b9250600101610820565b508682146109b15760405162461bcd60e51b815260206004820152601b60248201527f4d696c6573746f6e6573206d75737420657175616c20746f74616c00000000006044820152606401610244565b60008981526005602052604090819020805460ff1916600117905560035490516323b872dd60e01b8152336004820152306024820152604481018990526001600160a01b03909116906323b872dd906064016020604051808303816000875af1158015610a22573d6000803e3d6000fd5b505050506040513d601f19601f82011682018060405250810190610a469190611086565b610a8a5760405162461bcd60e51b8152602060048201526015602482015274151bdad95b881d1c985b9cd9995c8819985a5b1959605a1b6044820152606401610244565b876001600160a01b0316897f091ca0f1322e686f805f4edc01ff8bffb2dbe2d17568b31531060c1d723aad8f89604051610ac691815260200190565b60405180910390a3505050505050505050565b610ae1610cb4565b6001600160a01b038116610b0b57604051631e4fbdf760e01b815260006004820152602401610244565b610b1481610ce1565b50565b610b1f610cb4565b60008281526005602052604090205460ff16610b4d5760405162461bcd60e51b815260040161024490610fe5565b60008281526004602081905260409091209081015460ff16610ba35760405162461bcd60e51b815260206004820152600f60248201526e457363726f7720696e61637469766560881b6044820152606401610244565b60058101548210610bea5760405162461bcd60e51b8152602060048201526011602482015270496e76616c6964206d696c6573746f6e6560781b6044820152606401610244565b6000816005018381548110610c0157610c01611049565b60009182526020909120600490910201600281015490915060ff1615610c5d5760405162461bcd60e51b8152602060048201526011602482015270105b1c9958591e4818dbdb5c1b195d1959607a1b6044820152606401610244565b60028101805460ff1916600117905542600382015560405184907f1b7218c0ac23ea9cbe4df603d2b340fbf469a115b73ea3d11460727f445d6be190610ca69086815260200190565b60405180910390a250505050565b6001546001600160a01b031633146101d05760405163118cdaa760e01b8152336004820152602401610244565b600180546001600160a01b038381166001600160a01b0319831681179093556040519116919082907f8be0079c531659141344cd1fd0a4f28419497f9722a3daafe3b4186f6b6457e090600090a35050565b600260005403610d5657604051633ee5aeb560e01b815260040160405180910390fd5b6002600055565b600060208284031215610d6f57600080fd5b5035919050565b60208152600060e082018351602084015260018060a01b03602085015116604084015260408401516060840152606084015160808401526080840151151560a084015260a084015160c080850152818151808452610100860191506101008160051b870101935060208301925060005b81811015610e945760ff198786030183528351805160a0875280518060a089015260005b81811015610e2757602081840181015160c08b8401015201610e0a565b50600060c0828a0101526020830151602089015260408301519150610e50604089018315159052565b60608301519150610e65606089018315159052565b6080928301519288019290925250601f01601f191690940160c001936020938401939290920191600101610de6565b50929695505050505050565b60008060408385031215610eb357600080fd5b50508035926020909101359150565b80356001600160a01b0381168114610ed957600080fd5b919050565b60008083601f840112610ef057600080fd5b50813567ffffffffffffffff811115610f0857600080fd5b6020830191508360208260051b8501011115610f2357600080fd5b9250929050565b600080600080600080600060a0888a031215610f4557600080fd5b87359650610f5560208901610ec2565b955060408801359450606088013567ffffffffffffffff811115610f7857600080fd5b610f848a828b01610ede565b909550935050608088013567ffffffffffffffff811115610fa457600080fd5b610fb08a828b01610ede565b989b979a50959850939692959293505050565b600060208284031215610fd557600080fd5b610fde82610ec2565b9392505050565b60208082526010908201526f115cd8dc9bddc81b9bdd08199bdd5b9960821b604082015260600190565b600181811c9082168061102357607f821691505b60208210810361104357634e487b7160e01b600052602260045260246000fd5b50919050565b634e487b7160e01b600052603260045260246000fd5b8082018082111561108057634e487b7160e01b600052601160045260246000fd5b92915050565b60006020828403121561109857600080fd5b81518015158114610fde57600080fd5b6000808335601e198436030181126110bf57600080fd5b83018035915067ffffffffffffffff8211156110da57600080fd5b602001915036819003821315610f2357600080fd5b634e487b7160e01b600052604160045260246000fd5b601f82111561114f57806000526020600020601f840160051c8101602085101561112c5750805b601f840160051c820191505b8181101561114c5760008155600101611138565b50505b505050565b815167ffffffffffffffff81111561116e5761116e6110ef565b6111828161117c845461100f565b84611105565b6020601f8211600181146111b6576000831561119e5750848201515b600019600385901b1c1916600184901b17845561114c565b600084815260208120601f198516915b828110156111e657878501518255602094850194600190920191016111c6565b50848210156112045786840151600019600387901b60f8161c191681555b50505050600190811b0190555056fea2646970667358221220ae6b8599b90205c54350f66757ff8008ba08dc74741a15c677958a56c9df389664736f6c634300081a0033",
  "linkReferences": {},
  "deployedLinkReferences": {}
}