{
  "_format": "hh-sol-artifact-1",
  "contractName": "TenderAward",
  "sourceName": "contracts/TenderAward.sol",
  "abi": [
    {
      "inputs": [
        {
          "internalType": "address",
          "name": "registryAddress",
          "type": "address"
        }
      ],
      "stateMutability": "nonpayable",
      "type": "constructor"
    },
    {
      "inputs": [],
      "name": "tenderRegistry",
      "outputs": [
        {
          "internalType": "contract ITenderRegistry",
          "name": "",
          "type": "address"
        }
      ],
      "stateMutability": "view",
      "type": "function"
    }
  ],
  "bytecode": "0x6080604052348015600f57600080fd5b5060405161011d38038061011d833981016040819052602c916050565b600080546001600160a01b0319166001600160a01b0392909216919091179055607e565b600060208284031215606157600080fd5b81516001600160a01b0381168114607757600080fd5b9392505050565b60918061008c6000396000f3fe6080604052348015600f57600080fd5b506004361060285760003560e01c806389f59b0a14602d575b600080fd5b600054603f906001600160a01b031681565b6040516001600160a01b03909116815260200160405180910390f3fea2646970667358221220d9c22c9af66fdd53ddc5b6452cee4a07aefe4c9d16dd4a6b000f30206501006464736f6c634300081a0033",
  "linkReferences": {},
  "deployedLinkReferences": {}
}